:1017C7008B338A348935AB39AA3AA93BC003C002A7
:1017D700C001AB33AA34A93590001D1207CFAB3631
:1017E700AA37A938C003C002C001AB33AA34A93550
:1017F70090001A1207CFAB3CAA3DA93EC003C00216
:10180700C001AB33AA34A9359000201207CFAB3300
:10181700AA34A93590003BE412064CE4F557F55677
:1018270075557F755443FFFEFDFC1216C4AB33AAF2
:1018370034A93590002F12076B000000C8AD4C1279
:101847001A65AB33AA34A93585465785455685446D
:1018570055854354854A5B85495A85485985475874
:10186700854B5CAF42AE41AD40AC3F1211ED121C4F
:10187700F3AB33AA34A93590002F12073BC3EF9B74
:10188700FFEE9AFEED99FDEC98FCAB33AA34A9352F
:061897009000230206F799
:0E11ED008B4D8A4E894F8F538E528D518C50F0
:1011FB00E4F560F55FF55EF55DFFFEFDFCAB53AA14
:10120B0052A951A8501202BC500302133AE4FFFE3C
:10121B00FDFCAB57AA56A955A8541202BC500302A9
:10122B00133AE4FFFEFDFCAB5BAA5AA959A858126E
:10123B0002BC500302133AAB4DAA4EA94F90003C8F
:10124B00E55C12064CAF53AE52AD51AC501206DDFD
:10125B00AF57AE56AD55AC54AB4DAA4EA94F9000FF
:10126B00041206F7AF5BAE5AAD59AC58900008129A
:10127B0006F790002F1206ADE4120346E4FBFA7951
:10128B007A784412021F8F608E5F8D5E8C5DAF5338
:10129B00AE52AD51AC50AB4DAA4EA94F90000C12B3
:1012AB0006F7AF60AE5FAD5EAC5DAB57AA56A95506
:1012BB00A854120116AB4DAA4EA94F90001012065E
:1012CB00F7AB60AA5FA95EA85DAF5BAE5AAD59AC38
:1012DB005812021FAB4DAA4EA94F9000141206F7DD
:1012EB0090001812060D64017045AB4DAA4EA94F24
:1012FB0090000C1206AD120335AB4DAA4EA94F90C0
:10130B00000C1206F79000101206AD120335AB4D10
:10131B00AA4EA94F9000101206F79000141206ADBA
:0F132B00120335AB4DAA4EA94F9000141206F7CE
:01133A002290
:0E1098008B338A3489358F398E388D378C36FC
:1010A600E4F53DF53CF53BF53AFFFEFDFCAB39AA10
:0E10B60038A937A836D312067C50030211EC7D
:1010C400AB33AA34A93590002F1206ADE4120346BF
:1010D400C004C005C006C007AF39AE38AD37AC3662
:1010E400E4120346D003D002D001D00012021F8FB5
:1010F400418E408D3F8C3EAB33E5352410F9E43509
:1011040034FAC003C002C00112068DAB41AA40A943
:101114003FA83E120116D001D002D0031206DDAB67
:1011240033E5352414F9E43534FAC003C002C001B0
:1011340012068DAB41AA40A93FA83E12021FD0015E
:10114400D002D0031206DDAF39AE38AD37AC36ABC2
:1011540033AA34A93590002F1206F790002F1206F7
:10116400ADE4120346E4FBFA797A784412021F8F45
:101174003D8E3C8D3B8C3AAB33AA34A93512068D97
:1011840090000C1206F79000041206ADAB3DAA3C89
:10119400A93BA83A120116AB33AA34A93590001022
:1011A4001206F79000081206ADAB3DAA3CA93BA875
:1011B4003A12021FAB33AA34A9359000141206F771
:1011C400121CF3AB33AA34A93590002F12073BC38A
:1011D400EF9BFFEE9AFEED99FDEC98FCAB33AA343D
:0811E400A9359000231206F763
:0111EC0022E0
:1016C4008B4D8A4E894F8F538E528D518C50AF570C
:1016D400AE56AD55AC54AB53AA52A951A850120200
:1016E400BC40030217C6AF53AE52AD51AC50AB4D24
:1016F400AA4EA94F9000331206F7AF57AE56AD5518
:10170400AC549000371206F790003B12060D70039C
:101714000217C6AB4DAA4EA94F90001D12079F1287
:10172400068DAB4DAA4EA94F90003712073B12020B
:10173400BC500BAB4DAA4EA94F900037802BAB4D3C
:10174400AA4EA94F90001D12079F12068DAB4DAAF9
:101754004EA94F90003312073B1202BC601740158C
:10176400AB4DAA4EA94F9000331206AD90001D1246
:10177400079F1206DDAB4DAA4EA94F900037120603
:10178400AD90002712073B1202BC600D400BAB4D1D
:10179400AA4EA94F9000378020AB4DAA4EA94F9076
:1017A40000331206AD90002712073B1202BC501200
:1017B400AB4DAA4EA94F9000331206AD90002712EC
:0317C40006F72203
:061B1B008B338A3489358A
:101B2100ED640170047F0180027F008F36E536602D
:101B310011AB33AA34A93590003B12060D70031284
:101B410019EDAB33AA34A93590003BE53602064CBA
:1019ED008B378A38893990001D12079F12068DABEF
:1019FD0037AA38A9399000271206F790001A120756
:101A0D009F12068DAB37AA38A93990002B1206F715
:101A1D009000371206AD90002712073B1202BC60F2
:101A2D000D400BAB37AA38A9399000378020AB3762
:101A3D00AA38A9399000331206AD90002712073B42
:101A4D001202BC5012AB37AA38A9399000331206D6
:081A5D00AD9000271206F722EC
:101A65008D508B4D8A4E894F90003B12060D604973
:101A750090001812060D6550603F90000C1206ADDF
:101A8500120335AB4DAA4EA94F90000C1206F790E4
:101A950000101206AD120335AB4DAA4EA94F9000AA
:101AA500101206F79000141206AD120335AB4DAABD
:101AB5004EA94F9000141206F7AB4DAA4EA94F90B0
:071AC5000018E55002064C79
:060DD0008B338A348935E3
:100DD600E4F539F538F537F53690003B12060D7017
:100DE60002FF22121CF38F3D8E3C8D3B8C3AAB33B7
:100DF600AA34A93590002312073BC3E53D9BF54174
:100E0600E53C9AF540E53B99F53FE53A98F53EAB6A
:100E160033AA34A93590002F1206ADAB41AA40A9DA
:0C0E26003FA83EC312067C50030210954A
:100E3200AB33AA34A93590001A12079F12068D8F80
:100E4200458E448D438C42AB33AA34A935900020A1
:100E520012079F12068DAB45AA44A943A84212006D
:100E6200218F498E488D478C46AB33AA34A93590E1
:100E7200002B12073BAF45AE44AD43AC42120021FA
:100E82008F4D8E4C8D4B8C4AAB33E5352427F9E4DC
:100E92003534FAC003C002C00112068DC004C00579
:100EA200C006C007AA34A9359000101206ADAB499E
:100EB200AA48A947A846120116A804A905AA06AB82
:100EC20007D007D006D005D004120025D001D002E9
:100ED200D0031206DDAB33AA34A93590003C1206CA
:100EE2000D7049E92427F9E43AFAC003C002C001AF
:100EF20012068DC004C005C006C007AA34A93590E9
:100F0200000C1206ADAB4DAA4CA94BA84A12011611
:100F1200A804A905AA06AB07D007D006D005D004BD
:100F2200120021D001D002D0031206DDAB33AA3465
:100F3200A9359000371206AD90002712073B120226
:100F4200BC600D400BAB33AA34A93590003780202A
:100F5200AB33AA34A9359000331206AD90002712A4
:100F6200073B1202BC5012AB33AA34A935900033AE
:100F72001206AD9000271206F7AB33AA34A93590BA
:100F8200003C12060D601B90000C1206ADAB49AA84
:100F920048A947A8461201168F398E388D378C36EC
:100FA2008009E4F539F538F537F536AB39AA38A9B1
:100FB20037A836C000C001C002C003AB33AA34A9AF
:100FC200359000141206ADAB4DAA4CA94BA84A129B
:100FD2000116C004C005C006C007AB33AA34A93548
:100FE2009000271206ADD003D002D001D00012002B
:100FF20021D003D002D001D0001200258F398E38C3
:101002008D378C36AB33AA34A9359000371206AD32
:10101200AB39AA38A937A8361202BC600D400BAB17
:1010220033AA34A9359000378022AB33AA34A935CC
:101032009000331206ADAB39AA38A937A83612028E
:10104200BC5014AB33AA34A9359000331206AD8FCD
:10105200398E388D378C36AF39AE38AD37AC36ABCA
:1010620033AA34A93590001D12079F1206DDAF4541
:10107200AE44AD43AC42AB33AA34A93590002B1237
:1010820006F7AF3DAE3CAD3BAC3A9000231206F7FB
:031092007F0122B9
:021095007F00DA
:011097002236
:101BCD005365743A0054656D703A0054656D703A02
:101BDD0025322E31662743005365743A25322E3156
:051BED00662743200003
:101C3B00040A00000000011A0004164220000001F3
:051C4B00083001090052
:10133B00E4F532121C715389F0438901758A1875D3
:10134B008CFCC28DD28CD2A953890F438920758B0B
:10135B0006758D06C28FD28ED2ABD2AF121B511235
:10136B001D0275360075370075380E753900753AE4
:10137B0000753B12753C00753D00753E167542338A
:10138B007541337540B3753F3F7546CD7545CC758B
:10139B0044CC75433DE4F54AF549F548F547754BA3
:1013AB0001F54CFB7A0079611217C77B007A007943
:1013BB00611219ED7B007A0079617D01121B1B7B99
:1013CB00007A007961E4F557F55675557F755443EE
:1013DB00FFFEFDFC1216C47B007A0079617F887ECC
:1013EB00137D007C001210987BFF7A1B79CDE4FDF6
:1013FB00FF121BA77BFF7A1B79D27D01E4FF121B27
:10140B00A71215BD8F118E108D0F8C0E7536FF75B3
:10141B00371B7538D88F3C8E3B8D3A8C397B007AD5
:10142B000079221209BD7B007A0079227D01E4FF4D
:10143B00121BA77536FF75371B7538E585193C856B
:10144B00183B85173A8516397B007A0079221209E9
:10145B00BD7B007A007922E4FDFF121BA77B007A8B
:10146B00007961120DD0EF6401700DAF15AE14ADA4
:0D147B0013AC121203848F1A121ACC808455
:101ACC00E5905430F53365086041E5086430703BAF
:101ADC00E53324E0601824107031AF19AE18AD173F
:101AEC00AC16120384EF24FFFDEE34FF8011AF1906
:101AFC00AE18AD17AC16120384EF2401FDE43EFCC6
:0E1B0C0012034B8F198E188D178C1685330817
:011B1A0022A8
:091CF300AF0DAE0CAD0BAC0A22E2
:1015BD0075360075354075341C753346753A33757F
:1015CD003913753895753743753E00753DE0753C9B
:1015DD0076753B45754233754193754088753F432C
:1015ED007F0212189DAC07E41203508F468E458D75
:1015FD00448C43AB46AA45A944A843E4FFFE7D7F36
:10160D007C43120021AB36AA35A934A8331201163A
:10161D00AB46AA45A944A84312021F8F468E458D9D
:10162D00448C43AB36AA35A934A83312021F8F4A16
:10163D008E498D488C471214BC8F4A8E498D488C2B
:10164D0047AB3EAA3DA93CA83B12021F8F4A8E49CB
:10165D008D488C47AB4AAA49A948A847C000C0018C
:10166D00C002C003AB3AAA39A938A837E4FFFE7D02
:10167D00807C3F12021FD003D002D001D000120097
:10168D00258F4A8E498D488C47AB4AAA49A948A84F
:10169D0047E4FFFE7D807C3F12021F8F4A8E498DED
:1016AD00488C47AB42AA41A940A83F1200218F4A5E
:0616BD008E498D488C47A8
:0116C3002204
:03001B00021C576D
:041C5700C0E0C0D059
:101C5B00E51AC39509400543B001800353B0FE0557
:011C6B00096F
:051C6C00D0D0D0E032F1
:03000B00021C17BD
:101C1700C0E0C0D0758A18758CFCE50D2401F50D60
:101C2700E4350CF50CE4350BF50BE4350AF50AD071
:041C3700D0D0E032F7
:101B5100D293000000000000000000D292000000BB
:101B6100000000000000C290000000000000000022
:0D1B710000D29100000000000000000022E2
:10189D00D293000000000000000000C29000000084
:1018AD00000000000000D2920000000000000000C7
:1018BD0000C293000000000000000000430704E494
:1018CD00FEEEC39403748094805031EF5404600491
:1018DD00D2918002C291000000000000000000D2F1
:1018ED0090000000000000000000C2900000000009
:1018FD000000000000EF25E0FF0E80C5D290000033
:10190D0000000000000000C2900000000000000078
:10191D000000E4FFFEEEC39408748094805029EF1C
:10192D0025E0FFD290000000000000000000309282
:10193D00047D0180027D00ED2FFFC29000000000AC
:10194D0000000000000E80CDD293000000000000CA
:03195D0000000087
:011960002264
:021D070080C09A
:061C5000011C00011B0055
:03000E00121C9F22
:080011007F027EEFDEFEDFFC42
:0100190022C4
:101C8B007580FFC2A2C2A0D2A1D2A2AF80C2A2EF26
:031C9B0020E7ED52
:011C9E002223
:101C9F00AE07121C8BC2A2C2A0C2A18E80D2A2001C
:031CAF00C2A222AC
:101CB200AE07121C8BC2A2D2A0C2A18E80D2A200F9
:031CC200C2A22299
:101CD800051CE51C64107005051B531B01531C0FE4
:011CE80022D9
:101C71007F3812000E7F0112000E7F06121C9F1288
:0A1C810000117F0C121C9F020011DD
:101BF200EFC3941074809480501AEDC394027480E1
:101C0200948050108F1C8D1BAE05EE901D07934FD4
:051C1200FF121C9F22DF
:061CFC00E4FDFF021BF2F3
:051D02007F01021C9F9F
:0A1CE900AC03121BF2AF04021CB2A0
:061BA7008B338A348935FE
:101BAD00E4FC121BF2AB33AA34A9358C8275830089
:0F1BBD0012060DFF6009121CB2121CD80C80E634
:011BCC0022F6
:101B7E00AC07E51C7007AD1BAF1C121BF2EC640A20
:101B8E00700E051BE51B5401F51BFDE4FF021BF255
:091B9E00121CD8AF04121CB22283
:101CC5001205F4FF600C121B7E740129F9E43AFA3F
:031CD50080EE227C
:08000300AB07121B7EAF0322C4
:10001E000203F0E86480F8E933E83360110460F01D
:10002E00ED33EC337009E8FCE9FDEAFEEBFF220448
:10003E0060DED3EB9FEA9EE99DE8C2E78CF0C2F743
:10004E0095F0400CE8CCF8E9CDF9EACEFAEBCFFB0F
:10005E001203BB85D0F05804700320D5B3E80470AA
:10006E00075002B2D50203FA92D5EC0460F7E4CC45
:10007E00C0E0C398F8603B94186008400DD0E0FBD8
:10008E000203D2E4FBFAC9FC8028E830E406E4C996
:10009E00FBE4CAFCE830E305E4C9CACBFCE854072C
:1000AE006010F8C3E913F9EA13FAEB13FBEC13FC37
:1000BE00D8F130F52FC3E49CFCEF9BFFEE9AFEEDDA
:1000CE0099FDD0E0FBEF4E4D4C701222DB03020384
:1000DE00F7EC2CFCEF33FFEE33FEED33FDED30E7A6
:1000EE00EB0203D2EF2BFFEE3AFEED39FDD0E0FB33
:1000FE0050130BBB00030203FAED13FDEE13FEEFDC
:08010E0013FFEC13FC0203D205
:10011600EC4D6011E8497017ED33EC3304600DE4E3
:10012600FCFFFEFD22E933E8330470F80203F01207
:1001360003BB58046009E4CC248150062850090208
:1001460003FA2840030203F7C0E0EB4A7044B98083
:1001560006D0E0FB0203E6EF4E701CBD8008EBFF05
:10016600EAFEE9FD80EBE98DF0A4FEE5F00201FF71
:10017600E9CDF9EAFEEBFFEF89F0A4FCE5F0CE89C4
:10018600F0A42EFFE435F0CD89F0A42DFEE435F081
:100196008067EF4E7005BD80D780C3EF8BF0A4ACAF
:1001A600F0EE8BF0A42CFCE435F0F8EF8AF0A42CEA
:1001B600E5F038FCE433CB8DF0A42CFCE5F03BF8FD
:1001C600EE8AF0A42CFCE5F038F8E433CF89F0A4ED
:1001D6002CFCE5F038CF3400CE89F0A42FFFE5F0F3
:1001E6003EFEE433C98DF0A42EFEE5F039CD8AF04B
:1001F600A42FFFE5F03EFEE43DFD33D0E0FB5007C3
:100206000BBB000F0203FAEC2CFCEF33FFEE33FEC0
:06021600ED33FD0203D2EE
:10021C000203FAEC5D046005E8590470030203F074
:10022C001203BB580460F6EC4860F2EC7004FDFE5F
:10023C00FF22C860DB2481C85009C39860025006B5
:10024C000203F79850CAF582E9294B4A7005AB8234
:10025C000203E675F0007C1A7880C3EF9BEE9AEDF2
:10026C0099400DC3EF9BFFEE9AFEED99FDE842F02D
:10027C00DC23ACF0D0E0FFD0E0FED0E0FDAB822080
:10028C00E7101BEB60BAEC2CFCEF33FFEE33FEED0A
:10029C0033FD0203D2E803F830E705C0F075F00037
:1002AC00EF2FFFEE33FEED33FD40B830E7C280AAEE
:1002BC0074F8CC6480CCC86480C8F58204604FC3E9
:1002CC00EB9FF5F0EA9E42F0E99D42F0E89C45F088
:1002DC00603C501DE5825FFFE582D313CB5BCBF412
:1002EC002B5582FB50280ABA002409B9002008803B
:1002FC001DE5825BFBE582D313CF5FCFF4C3132FD5
:10030C005582FF50090EBE00050DBD00010CC3EB5C
:10031C009FF5F0EA9E42F0E99D42F0E89C45F060C2
:09032C0007CC4820E701B3EC22E4
:10033500ED33EC33600A047003BD8004ECB2E7FCD6
:010345002295
:1003460075F020800E75F010800575F0087D007E32
:10035600007F003392D530D50312066EEC33401081
:10036600EF33FFEE33FEED33FDEC33FCD5F0ED223B
:0E037600E5F0247EA2D513CC92E7CDCEFF2277
:10038400EDD2E7CD33EC3392D524814006E4FFFE71
:10039400FDFC22FCE4CFCECDCC24E0501174FF80D0
:1003A400EDC3CC13CCCD13CDCE13CECF13CF04706D
:0703B400F030D5DE02066EF9
:10096100E54A2436F8E6054A22783330070278361C
:10097100E475F00112078F0205F42000EB7F2ED2FF
:10098100008018EF540F2490D43440D4FF30040B6E
:10099100EF24BFB41A0050032461FFE54B60021538
:1009A1004B054EE54E7002054D30070D7833E47569
:1009B100F00112078FEF02063A0200037403D20717
:1009C1008003E4C207F54A8B338A348935E4F54B59
:1009D100F54DF54EE54B60077F2012099C80F575BA
:1009E1004CFFC201C200C202C203C205C206C20854
:1009F10012096AFF700D3007057F001209ADAF4E75
:100A0100AE4D22B4255FC2D5C20412096AFF24D0BB
:100A1100B40A00501A75F00A784B30D50508B6FFB4
:100A21000106C6A426F620D5047002D20380D9247B
:100A3100CFB41A00EF5004C2E5D204020C9AD201DD
:100A410080C6D20080C0D20280BCD2D580BAD20585
:100A510080B47F2012099C2002077401B54B00402D
:100A6100F1120961FF12099C0209D5D208D2068050
:100A710095120961FB120961FA120961F94A4B7079
:100A81000679917A0D7BFF20022EE54B602A7E00CC
:100A91008E8275830012060D60060EEE654C70F0B5
:100AA100C2D5EBC0E0EAC0E0E9C0E0EE120CFAD03A
:100AB100E0F9D0E0FAD0E0FB1205F4FF60AAEBC048
:100AC100E0EAC0E0E9C0E012099CD0E02401F9D0DD
:100AD100E03400FAD0E0FBE54C0460DCD54CD98071
:100AE10087D20280A2120CDD60F7E54C700104127E
:100AF1000405A94C600DE54C600914F54C120D84F8
:100B0100EF60F3EA30E702F404C3995077EAF42581
:100B11004C0430E701E404F54C800D120CDD60C19A
:100B2100EA054C254C120405EA7849F630E701E460
:100B3100254C04D54C0420050114120CFAE4C0E044
:100B4100120D847849E6601320E70714F612098430
:100B5100802204F6D0E014C0E07F00120984E54C45
:100B6100600712097B154C800B30050312097BD0FD
:100B7100E00209D5D0E00480C5120CDD60A0E54C8F
:100B8100041204057849EAF6E54C200502600104E7
:050B91002404120CFA1F
:100B960074FF04C0E0120D84120984E54C2005029E
:100BA600600312097BD0E0B54CE87F4512098E78C8
:100BB60049E67F2B30E7047F2DF404C0E012099C40
:100BC600D0E075F00A84C0F0120985D0E0120985DC
:100BD6000209D5791080027908C206C2088008D2B7
:100BE600D5790A8004790AC2D5E54C047002F54C21
:100BF600E4FAFDFEFF120961FC7B082001131209CD
:100C060061FD7B1030000A120961FE120961FF7B4B
:100C160020EC3382D592D55013C3E43000069FFFF3
:100C2600E49EFEE42001039DFDE49CFCE4CBF8C2B7
:100C360001EC700CCFCECDCCE824F8F870F3801719
:100C4600C3EF33FFEE33FEED33FDEC33FCEB33FB4A
:100C5600994002FB0FD8E9EB300105F8D0E0C44813
:100C6600B201C0E00AEC4D4E4F78207B0070C2EA1C
:100C7600B54C0040BCC0E0120CFCD0F0D0E0200126
:100C860004C4C0E0C4B201C0F0120985D0F0D5F0AA
:100C9600EB0209D51208280A72530BD9580A434C9D
:100CA6000A3F420BDD4F0BE5440BE5490A58430B5F
:100CB600EB550B1C460B7A450AE6470DB1500A4721
:100CC6002D0A4B2E0A6E2B0A4F230A6C200D9A2AE8
:100CD6000A074800000A66E54CB4FF03754C061285
:100CE6000961FC120961FD120961FE120961FF78B2
:100CF60042020434790AA2D5200314300509B9103A
:100D0600020404B9080104A2D520060250010420F9
:100D160002689202B54B005034C0E07F20300319C0
:100D26007F30A20272067205500F120D53C202C224
:100D360006C205C2087F30800F300503E9C0E01205
:100D4600099C300503D0E0F9D0E0B54BCC3005174F
:100D56007F30B9100C12099C7F583004077F7880C9
:100D660003B9080312099C3002057F2D02099C7FF6
:100D7600202008F87F2B2006F322920280CF7F00E6
:100D8600B4070050052442F8E6FF22286E756C6C05
:100D96002900D2011209613001F8C201784B30D521
:100DA6000108F6020A072D50434958120961240327
:100DB600B405004001E4900DAC9312098D743A120B
:0A0DC600098DD203754B04020BD90E
:101488003E9248DA3ECCCCCD3F2AAAAB40000000C1
:101498003F8000003F9837F03FB504F33FD744FC46
:1014A8003E3172173EB172173F0515913EDE5BD98A
:1014B800D2008002C200EDD2E7F8CD33EC330470DD
:1014C8000BBD800592D50203FA0203F040FBD3144A
:1014D80060F2F5F07C3FEE7A00C39496C8948B4096
:1014E800230AC89469C8941A401A0AC89468C89408
:1014F8001F40110AC8945AC89425400805F07A007C
:10150800CDC2E7CDC0F08C4B8D4C8E4D8F4EEA236B
:1015180023C0E02498F582E43414F58312072B12D3
:101528000025ECC0E0EDC0E0EEC0E0EFC0E012073F
:101538001BA84BA94CAA4DAB4E120021D0E0FBD002
:10154800E0FAD0E0F9D0E0B2E7F812021F8C4B8D38
:101558004C8E4D8F4E9014887403120537A84BA9F2
:101568004CAA4DAB4E120116D0E0600F24A4F582B0
:10157800E43414F58312072B1200258C4B8D4C8E06
:101588004D8F4ED0E0C3947FFDE49400FC12034BD2
:101598007B187A727931783F120116A84BA94CAAA8
:1015A8004DAB4E12002530000B7BD97A5B79DE7883
:0515B8003E12011622A5
:1003BB00E9D2E7C933E833F892D5EDD2E7CD33EC88
:0703CB0033FC5002B2D52201
:1003D200EC30E7100FBF000C0EBE00080DBD00048C
:1003E2000BEB6014A2D5EB13FCED92E7FD2274FF38
:1003F200FCFDFEFF22E480F8A2D574FF13FC7D8091
:03040200E480EFA4
:10040500F920E72824F950037907E4F42402FB18BE
:10041500DBFDE624FB5014E9600DE4F618E604F66E
:0F042500B40A08E4F6D9F57401F60A22C2D5220A
:10043400ED33EC3392D5FA602AB4FF33EDC2E77B97
:10044400FF60067A047959E4227A04796220D5049B
:100454007A04795D224E614E002B494E46002D49A7
:100464004E4600E47A08F608DAFC7B00740722E8BA
:10047400C0E0ECC0E0EDC0E0EEC0E0EFC0E0EA7543
:10048400F010A4CAABF075F04DA42BFBE435F0FCDE
:10049400EA2410FAEB34C5FBEC34D9FCEDC2E7FFD7
:1004A40075F056A4F42411C5F0F434C58FF0A42AD1
:1004B400E5F03BE43CF620E7141205B4D0E0FFD0AD
:1004C400E0FED0E0FDD0E0FC12021F8014F4041220
:1004D40005B4D0E0FFD0E0FED0E0FDD0E0FC120196
:1004E40016D0E0F8E6FAEDD2E7CD33EC332482FB04
:1004F400E4C3CF33CFCE33CECD33CD33DBF37B0761
:1005040075F00A846004F6081B0AE5F0F6088FF01B
:10051400740AA4FFACF08EF0740AA42CFEACF05064
:10052400010C8DF0740AA42CFDE435F0F608DBDE32
:0305340074072227
:10053700C0E0EFFBEEFAEDF9ECF8120116D0E0F5AA
:10054700F0EFFBEEFAEDF9ECF812071BA3A3A3A358
:10055700E8C0E0E9C0E0EAC0E0EBC0E0C0F01201AB
:100567001612072BA3A3A3A3120025D0F0D0E0FBFC
:0D057700D0E0FAD0E0F9D0E0F8D5F0D422C1
:100584003F8000004120000042C80000447A00007F
:10059400461C400047C35000497424004B18968001
:1005A4004CBEBC205A0E1BCA6753C21C749DC5AEF8
:1005B400FB60065407601C23231205E2EB543860E9
:1005C400091205CE1205DD120116ECF8EDF9EEFA6A
:1005D400EFCB22EB1205DD80F1543803241C900587
:1005E40084FE93FC0EEE93FD0EEE930ECE93FF224B
:0300000002196181
:0C196100787FE4F6D8FD75819D0219A87E
:1005F400BB010689828A83E0225002E722BBFE0205
:09060400E32289828A83E4932237
:10060D00BB010CE58229F582E5833AF583E02250A2
:10061D0006E92582F8E622BBFE06E92582F8E222EC
:0D062D00E58229F582E5833AF583E4932206
:10063A00BB010689828A83F0225002F722BBFE019F
:02064A00F32299
:10064C00F8BB010DE58229F582E5833AF583E8F0E4
:10065C00225006E92582C8F622BBFE05E92582C890
:02066C00F22278
:0E066E00C3E49FFFE49EFEE49DFDE49CFC229D
:10067C00EB9FF5F0EA9E42F0E99D42F0E89C45F0D4
:01068C00224B
:10068D00BB010789828A8302085A5005E9F80208DE
:10069D004EBBFE05E9F802086689828A8302071BB4
:1006AD00BB010DE58229F582E5833AF58302085AEF
:1006BD005007E92582F802084EBBFE07E92582F8AE
:1006CD00020866E58229F582E5833AF58302071B68
:1006DD00BB010789828A830208A45005E9F8020844
:0A06ED0098BBFE05E9F80208B022F0
:1006F700BB010DE58229F582E5833AF5830208A45B
:100707005007E92582F8020898BBFE07E92582F819
:040717000208B02202
:10071B00E493FC740193FD740293FE740393FF2224
:10072B00E493F8740193F9740293FA740393FB2224
:10073B00BB010DE58229F582E5833AF58302087F3B
:10074B005007E92582F8020872BBFE07E92582F8FB
:10075B0002088BE58229F582E5833AF58302072BA4
:10076B00BB010DE58229F582E5833AF5830208D5B5
:10077B005007E92582F80208BCBBFE07E92582F881
:04078B000209062237
:10078F00FAE6FB0808E6F925F0F618E6CA3AF6226B
:10079F00BB010DE58229F582E5833AF58302093124
:1007AF005007E92582F802091FBBFE07E92582F8E9
:1007BF00020943E58229F582E5833AF5830209555B
:1007CF00BB0120E58229F582E5833AF583D0F0D08D
:1007DF00E0F8D0E0F9D0E0FAD0E0FBE8C0E0C0F0FC
:1007EF0002093A5018E92582F8D083D082D0E0F977
:1007FF00D0E0FAD0E0FBC082C083020928BBFE180C
:10080F00E92582F8D083D082D0E0F9D0E0FAD0E0A9
:09081F00FBC082C08302094C22D7
:10082800D083D082F8E4937012740193700DA3A35F
:1008380093F8740193F5828883E473740293686073
:06084800EFA3A3A380DF73
:10196D0002133BE493A3F8E493A34003F68001F242
:10197D0008DFF48029E493A3F85407240CC8C3337B
:10198D00C4540F4420C8834004F456800146F6DF4A
:10199D00E4800B0102040810204080901C3BE47E83
:1019AD00019360BCA3FF543F30E509541FFEE4933F
:1019BD00A360010ECF54C025E060A840B8E493A306
:1019CD00FAE493A3F8E493A3C8C582C8CAC583CA31
:1019DD00F0A3C8C582C8CAC583CADFE9DEE780BEE9
:011C5600008D
:0C084E00E6FC08E6FD08E6FE08E6FF22D6
:0C085A00E0FCA3E0FDA3E0FEA3E0FF2211
:0C086600E2FC08E2FD08E2FE08E2FF22CE
:0D087200E6FB08E6F908E6FA08E6CBF822F6
:0C087F00E0F8A3E0F9A3E0FAA3E0FB22FC
:0D088B00E2FB08E2F908E2FA08E2CBF822ED
:0C089800ECF608EDF608EEF608EFF6228C
:0C08A400ECF0A3EDF0A3EEF0A3EFF022C7
:0C08B000ECF208EDF208EEF208EFF22284
:1008BC00D083D082E493F608740193F60874029303
:0908CC00F608740393F67404733A
:1008D500A8828583F0D083D0821208EC1208EC122E
:1008E50008EC1208ECE473E493A3C583C5F0C58353
:1008F500C8C582C8F0A3C583C5F0C583C8C582C86D
:0109050022CF
:10090600D083D082E493F208740193F208740293C0
:09091600F208740393F2740473F7
:09091F00E6FB08E6FA08E6F922FD
:09092800EBF608EAF608E9F622F4
:09093100E0FBA3E0FAA3E0F922C7
:09093A00EBF0A3EAF0A3E9F022BE
:09094300E2FB08E2FA08E2F922E5
:09094C00EBF208EAF208E9F222DC
:0C095500E493FB740193FA740293F922FE
:00000001FF
